{
  "contractName": "Marketplace",
  "abi": [
    {
      "inputs": [],
      "payable": false,
      "stateMutability": "nonpayable",
      "type": "constructor"
    },
    {
      "anonymous": false,
      "inputs": [
        {
          "indexed": false,
          "internalType": "uint256",
          "name": "id",
          "type": "uint256"
        },
        {
          "indexed": false,
          "internalType": "string",
          "name": "name",
          "type": "string"
        },
        {
          "indexed": false,
          "internalType": "uint256",
          "name": "price",
          "type": "uint256"
        },
        {
          "indexed": false,
          "internalType": "address payable",
          "name": "seller",
          "type": "address"
        },
        {
          "indexed": false,
          "internalType": "bool",
          "name": "purchased",
          "type": "bool"
        }
      ],
      "name": "ProductCreated",
      "type": "event"
    },
    {
      "anonymous": false,
      "inputs": [
        {
          "indexed": false,
          "internalType": "uint256",
          "name": "id",
          "type": "uint256"
        },
        {
          "indexed": false,
          "internalType": "bool",
          "name": "purchased",
          "type": "bool"
        }
      ],
      "name": "PurchaseProduct",
      "type": "event"
    },
    {
      "constant": true,
      "inputs": [],
      "name": "productCount",
      "outputs": [
        {
          "internalType": "uint256",
          "name": "",
          "type": "uint256"
        }
      ],
      "payable": false,
      "stateMutability": "view",
      "type": "function"
    },
    {
      "constant": true,
      "inputs": [
        {
          "internalType": "uint256",
          "name": "",
          "type": "uint256"
        }
      ],
      "name": "products",
      "outputs": [
        {
          "internalType": "uint256",
          "name": "id",
          "type": "uint256"
        },
        {
          "internalType": "string",
          "name": "name",
          "type": "string"
        },
        {
          "internalType": "uint256",
          "name": "price",
          "type": "uint256"
        },
        {
          "internalType": "address payable",
          "name": "seller",
          "type": "address"
        },
        {
          "internalType": "bool",
          "name": "purchased",
          "type": "bool"
        }
      ],
      "payable": false,
      "stateMutability": "view",
      "type": "function"
    },
    {
      "constant": false,
      "inputs": [
        {
          "internalType": "string",
          "name": "_name",
          "type": "string"
        },
        {
          "internalType": "uint256",
          "name": "_price",
          "type": "uint256"
        }
      ],
      "name": "createProduct",
      "outputs": [],
      "payable": false,
      "stateMutability": "nonpayable",
      "type": "function"
    },
    {
      "constant": false,
      "inputs": [
        {
          "internalType": "uint256",
          "name": "_id",
          "type": "uint256"
        }
      ],
      "name": "purchaseProduct",
      "outputs": [],
      "payable": true,
      "stateMutability": "payable",
      "type": "function"
    },
    {
      "constant": true,
      "inputs": [],
      "name": "getBalance",
      "outputs": [
        {
          "internalType": "uint256",
          "name": "",
          "type": "uint256"
        }
      ],
      "payable": false,
      "stateMutability": "view",
      "type": "function"
    }
  ],
  "bytecode": "0x60806040526000805534801561001457600080fd5b506000808154809291906001019190505550600073904fae5a65e9eccf44559348c546af6a1de7801a90506040518060a0016040528060005481526020016040518060400160405280600781526020017f50657266756d65000000000000000000000000000000000000000000000000008152508152602001600581526020018273ffffffffffffffffffffffffffffffffffffffff1681526020016000151581525060016000600181526020019081526020016000206000820151816000015560208201518160010190805190602001906100f192919061016c565b506040820151816002015560608201518160030160006101000a81548173ffffffffffffffffffffffffffffffffffffffff021916908373ffffffffffffffffffffffffffffffffffffffff16021790555060808201518160030160146101000a81548160ff02191690831515021790555090505050610211565b828054600181600116156101000203166002900490600052602060002090601f016020900481019282601f106101ad57805160ff19168380011785556101db565b828001600101855582156101db579182015b828111156101da5782518255916020019190600101906101bf565b5b5090506101e891906101ec565b5090565b61020e91905b8082111561020a5760008160009055506001016101f2565b5090565b90565b610ab4806102206000396000f3fe60806040526004361061004a5760003560e01c806312065fe01461004f57806338e76a031461007a5780637acc0b20146100a8578063e0f6ef87146101a8578063e9300c6c146101d3575b600080fd5b34801561005b57600080fd5b506100646102a5565b6040518082815260200191505060405180910390f35b6100a66004803603602081101561009057600080fd5b81019080803590602001909291905050506102c4565b005b3480156100b457600080fd5b506100e1600480360360208110156100cb57600080fd5b810190808035906020019092919050505061069d565b60405180868152602001806020018581526020018473ffffffffffffffffffffffffffffffffffffffff1673ffffffffffffffffffffffffffffffffffffffff16815260200183151515158152602001828103825286818151815260200191508051906020019080838360005b8381101561016957808201518184015260208101905061014e565b50505050905090810190601f1680156101965780820380516001836020036101000a031916815260200191505b50965050505050505060405180910390f35b3480156101b457600080fd5b506101bd610798565b6040518082815260200191505060405180910390f35b3480156101df57600080fd5b506102a3600480360360408110156101f657600080fd5b810190808035906020019064010000000081111561021357600080fd5b82018360208201111561022557600080fd5b8035906020019184600183028401116401000000008311171561024757600080fd5b91908080601f016020809104026020016040519081016040528093929190818152602001838380828437600081840152601f19601f8201169050808301925050505050505091929192908035906020019092919050505061079e565b005b60003373ffffffffffffffffffffffffffffffffffffffff1631905090565b6102cc610993565b600160008381526020019081526020016000206040518060a001604052908160008201548152602001600182018054600181600116156101000203166002900480601f01602080910402602001604051908101604052809291908181526020018280546001816001161561010002031660029004801561038d5780601f106103625761010080835404028352916020019161038d565b820191906000526020600020905b81548152906001019060200180831161037057829003601f168201915b50505050508152602001600282015481526020016003820160009054906101000a900473ffffffffffffffffffffffffffffffffffffffff1673ffffffffffffffffffffffffffffffffffffffff1673ffffffffffffffffffffffffffffffffffffffff1681526020016003820160149054906101000a900460ff1615151515815250509050806060015173ffffffffffffffffffffffffffffffffffffffff163373ffffffffffffffffffffffffffffffffffffffff1614156104b9576040517f08c379a000000000000000000000000000000000000000000000000000000000815260040180806020018281038252601a8152602001807f63616e27742062757920796f7572206f776e2070726f6475637400000000000081525060200191505060405180910390fd5b80604001513373ffffffffffffffffffffffffffffffffffffffff1631101561054a576040517f08c379a00000000000000000000000000000000000000000000000000000000081526004018080602001828103825260118152602001807f796f752068617665206e6f206d6f6e657900000000000000000000000000000081525060200191505060405180910390fd5b600181608001901515908115158152505080600160008481526020019081526020016000206000820151816000015560208201518160010190805190602001906105959291906109da565b506040820151816002015560608201518160030160006101000a81548173ffffffffffffffffffffffffffffffffffffffff021916908373ffffffffffffffffffffffffffffffffffffffff16021790555060808201518160030160146101000a81548160ff021916908315150217905550905050806060015173ffffffffffffffffffffffffffffffffffffffff166108fc670de0b6b3a76400008360400151029081150290604051600060405180830381858888f19350505050507f9c0923d31250a5ea8cf110a5823be7c52b3154d74c6275a6336c33608eec2d1d82826080015160405180838152602001821515151581526020019250505060405180910390a15050565b6001602052806000526040600020600091509050806000015490806001018054600181600116156101000203166002900480601f01602080910402602001604051908101604052809291908181526020018280546001816001161561010002031660029004801561074f5780601f106107245761010080835404028352916020019161074f565b820191906000526020600020905b81548152906001019060200180831161073257829003601f168201915b5050505050908060020154908060030160009054906101000a900473ffffffffffffffffffffffffffffffffffffffff16908060030160149054906101000a900460ff16905085565b60005481565b60008081548092919060010191905055506040518060a0016040528060005481526020018381526020018281526020013373ffffffffffffffffffffffffffffffffffffffff16815260200160001515815250600160008054815260200190815260200160002060008201518160000155602082015181600101908051906020019061082b9291906109da565b506040820151816002015560608201518160030160006101000a81548173ffffffffffffffffffffffffffffffffffffffff021916908373ffffffffffffffffffffffffffffffffffffffff16021790555060808201518160030160146101000a81548160ff0219169083151502179055509050507fbc59c0c8165864dcceb377dd07d8f431d4303f8e501cb0a0374a10cc68d71836600054838333600060405180868152602001806020018581526020018473ffffffffffffffffffffffffffffffffffffffff1673ffffffffffffffffffffffffffffffffffffffff16815260200183151515158152602001828103825286818151815260200191508051906020019080838360005b83811015610951578082015181840152602081019050610936565b50505050905090810190601f16801561097e5780820380516001836020036101000a031916815260200191505b50965050505050505060405180910390a15050565b6040518060a00160405280600081526020016060815260200160008152602001600073ffffffffffffffffffffffffffffffffffffffff1681526020016000151581525090565b828054600181600116156101000203166002900490600052602060002090601f016020900481019282601f10610a1b57805160ff1916838001178555610a49565b82800160010185558215610a49579182015b82811115610a48578251825591602001919060010190610a2d565b5b509050610a569190610a5a565b5090565b610a7c91905b80821115610a78576000816000905550600101610a60565b5090565b9056fea265627a7a72315820c5af794b5b0a1bd99e442479fc1ced83fed81846091ef32063902e9abce5e6e564736f6c63430005100032",
  "source": "// SPDX-License-Identifier: MIT\npragma solidity >=0.4.22 <0.8.0;\n\ncontract Marketplace {\n  uint public productCount = 0;\n\n  struct Product {\n    uint id;\n    string name;\n    uint price;\n    address payable seller;\n    bool purchased;\n  }\n\n  mapping(uint => Product) public products;\n\n  constructor() public {\n    productCount++;\n    address myAddress = 0x904fae5a65E9ecCF44559348c546Af6a1dE7801A;\n    products[1] = Product(productCount, \"Perfume\", 5, address(uint160(myAddress)), false);\n  }\n\n  event ProductCreated(\n    uint id,\n    string name,\n    uint price,\n    address payable seller,\n    bool purchased\n  );\n\n  function createProduct(string memory _name, uint _price) public {\n    productCount++;\n    products[productCount] = Product(productCount, _name, _price, msg.sender, false);\n    emit ProductCreated(productCount, _name, _price, msg.sender, false);\n  }\n\n  event PurchaseProduct(\n    uint id,\n    bool purchased\n  );\n\n  function purchaseProduct(uint _id) public payable {\n    Product memory _product = products[_id];\n    require(msg.sender != _product.seller, \"can't buy your own product\");\n    require(msg.sender.balance >= _product.price, \"you have no money\");\n    _product.purchased = true;\n    products[_id] = _product;\n\n    // for some reason \"transfer\" function did not work\n    _product.seller.send(_product.price * 1000000000000000000);\n    emit PurchaseProduct(_id, _product.purchased);\n  }\n\n  function getBalance() public view returns (uint) {\n    return msg.sender.balance;\n  }\n}",
  "sourcePath": "/home/hello/nodeapp/blockchain_marketplace/contracts/Marketplace.sol",
  "compiler": {
    "name": "solc",
    "version": "0.5.16+commit.9c3226ce.Emscripten.clang"
  },
  "schemaVersion": "3.3.1",
  "updatedAt": "2020-11-07T11:08:32.505Z",
  "networkType": "ethereum",
  "devdoc": {
    "methods": {}
  },
  "userdoc": {
    "methods": {}
  }
}